:0E0000000C94DB000C9400000C9400000C9497
:10000E0000000C9400000C9400000C9400000C9462
:10001E0000000C9400000C9400000C9400000C9452
:10002E0000000C9400000C9400000C9400000C9442
:10003E0000000C9400000C9400000C9400000C9432
:10004E0000000C9400001027E80364000A00010071
:10005E0000100001100001004C4544206C696768D7
:10006E0074202025326420202020202020202020D3
:10007E0020202020202020004F4646202020202017
:10008E00253264200A20202020202020205F5F5F60
:10009E0020202020202020004C4544202046414E88
:1000AE00202054454D50200A5F5F5F2020202020E5
:1000BE0020202020202020004C4544202046414E68
:1000CE00202054454D50200A20202020205F5F5FC5
:1000DE0020202020202020004C4544202046414E48
:1000EE00202054454D50200A202020202020202062
:1000FE0020205F5F5F2020004F46462020202020DA
:10010E002532642020253264200A5F5F5F20202084
:10011E0020202020202020202020004F4646202076
:10012E002020202532642020253264200A20202021
:10013E0020202020205F5F5F2020202000534C4F86
:10014E005720204D4544202046415354200A5F5FDE
:10015E005F202020202020202020202000534C4FE4
:10016E005720204D4544202046415354200A20203C
:10017E002020205F5F5F20202020202000534C4F46
:10018E005720204D4544202046415354200A20201C
:10019E0020202020202020205F5F5F20000080C0D4
:1001AE0002008002AC010000F894EE27ECBBF1E0F7
:1001BE00FBBFEBBFE5BF8DE0A2E0BB27ED938A95B9
:1001CE00E9F780E098E0A0E6ED930197E9F7EEEA13
:1001DE00F1E085919591009761F0A591B59105900B
:1001EE001590BF01F00105900D920197E1F7FB010B
:1001FE00F0CFEFE5EDBFE8E0EEBFC0E6D2E00C9445
:10020E000E02AA93E881E7B98BE18A95F1F7369A47
:10021E00349BFECF349AE4B1F5B10C94FE04E9E6BA
:10022E00E5BD8F9A0895E0E0E5BD0895E9E6E3BFE8
:10023E00BB9A0895E0E0E3BF0895BA93AA93CC9BCE
:10024E0003C0E0E0EA83EB83E0E6F2E0FA93EA93A0
:10025E00E6E6F0E00E9419050E942605EA81FB8180
:10026E00D4C0BA93AA93C99B04C0E881F981319690
:10027E0005C0CA9B05C0E881F9813197E883F983EF
:10028E00E881F9810C949E04BA93AA93C99B04C089
:10029E00E881F981319605C0CA9B05C0E881F981D4
:1002AE003197E883F9830E942F05E6E8F0E00E947B
:1002BE0019050E942605E881F9810C949E040E947E
:1002CE00340569F40E942F05E6EAF0E00E943E052F
:1002DE00CB9B04C0E1E0F0E0E883F98325C00E94E7
:1002EE004505E230A0E0FA0769F40E942F05E6EC1E
:1002FE00F0E00E943E05CB9B04C0EAE0F0E0E8830C
:10030E00F98312C00E944505E130A0E0FA0761F4BE
:10031E000E942F05E6EEF0E00E943E05CB9B04C046
:10032E00E4E1F0E0E883F983E881F9812496089509
:10033E00BA93AA930E944C05309761F40E942F0540
:10034E00E6E0F1E00E945305CB9B03C0E0E0EA83B8
:10035E00EB831DC00E944C05E130A0E0FA07B9F412
:10036E000E942F05E9E2F1E00E945305CB9B08C0E5
:10037E00CC9906C0AA81BB8187DFEA83FB83F8CFC5
:10038E00CC9B03C0E0E0EE83EF83EE81FF812896E5
:10039E0008950E94340569F40E942F05EBE4F1E004
:1003AE000E943E05CB9B04C0E4E6F0E0E883F983AF
:1003BE0025C00E944505E230A0E0FA0769F40E94CC
:1003CE002F05EBE6F1E00E943E05CB9B04C0E1EB6E
:1003DE00F0E0E883F98312C00E944505E130A0E009
:1003EE00FA0761F40E942F05EBE8F1E00E943E054A
:1003FE00CB9B04C0EFEFF0E0E883F983CC9B03C006
:10040E00E0E0EC83ED83EC81FD812696089528973C
:10041E00EFEFE883E0E0E983EEE1EA83E0E0EB83EF
:10042E00EC83ED83EE83EF8340E050E0EABBEBBB61
:10043E00E8E0E7BBE0E0E8BBEEE0E4BBE0E0E5BB14
:10044E00E1BBE2BBE4E0E3BFE6E0E2BFE0E0ECBF2D
:10045E00EFBDEEBDEDBDECBDE7BDE6BDEBBDEABD4E
:10046E00E9BDE8BDE2BDECE4E5BDE0E0E4BDE3BD21
:10047E00E1E0E9BFE0E0E5BFE4BFEAB9E0E8E8B9F2
:10048E00E0E0E7B9E3E8E6B9E0E0E0BFEDB9E6BFEA
:10049E00A4E10E94D2047894E0E09899E1E02E2F36
:1004AE003327022E032A31F0A5E0ABDE8F0103BD08
:1004BE00B6DE06C0203011F4979801C0979AB3DECD
:1004CE00A0E09FDEEC83FD830E94E6060E941506E7
:1004DE00DF01CB01E0E0F0EC6FE774E40E949106DF
:1004EE00A0E0B0E080EA90E40E944306A0E0B0E015
:1004FE0088EC92E40E9443060E94DE05EC83FD83A5
:10050E00EA81FB81AC81BD81EA17FB0724F4E88107
:10051E00ECBF8CDE02C0C3988DDEDA01A2DEAF0125
:10052E00EE81FF81309731F45A934A93A885B985AD
:10053E00C6DE26C0AE81BF81119749F43A932A9345
:10054E00E885F985FA93EA93D80177DE19C0AE8172
:10055E00BF81549751F40E9466055A934A930E94A4
:10056E006605AA85BB85E4DE0BC0AE81BF811A97F6
:10057E0049F40E9466055A934A93AC81BD8109DF06
:10058E00EE83FF8389CFFFCFBA93AA931A930A9370
:10059E00AA81BB8112960E940C07309759F1AA814D
:1005AE00BB8114960E940C078F01309761F00230C8
:1005BE00E0E01E0798F0F80131978F01AA81BB8108
:1005CE001496ED93FC93AA81BB811296ED91FD9149
:1005DE003196FE93EE933197AC81A083AA81BB81B5
:1005EE000E940C07FF232AF0ED91FD913196FE93A8
:1005FE00EE9306C0AA81BB81EFEFFFEFED93FC9364
:10060E001981088125960895BA93AA9326970E9478
:10061E00190710E0AC85BD85E0E0F0E0ED93FC93AA
:10062E00EA89FB893196EA8BFB8B3197E4912E2F69
:10063E00E03009F415C1E12FE03039F4253211F420
:10064E0011E002C00E946B050AC1E130A9F4253207
:10065E0019F40E946B0502C112E040E000E02D3259
:10066E0011F401E0FCC02B3211F44BE2F8C0203241
:10067E0011F440E2F4C002C0E23039F450E013E06D
:10068E00203311F40068EBC003C0E33009F0E7C07B
:10069E00203310F02A3308F007C0AAE05A9F502DDD
:1006AE00E22FE0535E0FDBC0E22FE33649F40E94E7
:1006BE007205E889F989A481AA930E947805CEC0B3
:1006CE00E33741F40E9472050E947E050E940005E8
:1006DE001E2F0AC0E03761F40E9472050E947E054B
:1006EE000E940C051E2F086002600F7730E034C0A8
:1006FE00E43611F0E93611F4046002C0E53731F446
:10070E00E4E5F0E0EE83FF8315E00CC0E83511F46C
:10071E00086003C0E83709F0A1C0EEE5F0E0EE8313
:10072E00FF8314E002FF14C00E9472050E94880528
:10073E00AB85AA233AF4EA85FB850E94DA06EA879E
:10074E00FB874DE2403011F01F5F01C00B7F04C0EC
:10075E000E9472050E94880500FD11C0151778F4DD
:10076E0007FF08C002FF04C00B7F242F115001C0E9
:10077E0020E301C020E20E946B055150EFCF312FD4
:10078E0001FF17C03030A1F003FF06C0EE81FF81DC
:10079E002591EE83FF8305C0AE81BF812D91AE837F
:1007AE00BF830E946B05503009F051503150EACF93
:1007BE004BC020E3EE81FF810E941007E887F98786
:1007CE00EE81FF813296EE83FF83E885F985AA8557
:1007DE00BB85AE17BF0750F02F5FA885B985EA8598
:1007EE00FB85EA1BFB0BEA87FB87EFCF2A3328F04A
:1007FE0003FF02C0295F01C0295D04FD1AC0213329
:10080E0020F4A885B985119709F409C0531710F083
:10081E0000FF01C013C020E207FF0BC020E3006100
:10082E0002FF07C00B7F4A930E947805503009F0F3
:10083E0051500E946B05503009F051503150A8852F
:10084E00B985129708F0B5CF00FF08C0503031F0CF
:10085E005150E0E2EA930E947805F8CF10E0E0CE26
:10086E00AC85BD850E940C070E94200764960895F2
:10087E00FF92F82E26970E941B070E949005309734
:10088E0019F4EFEFFFEF23C0DE0116960E94D60695
:10089E008D010E949005EE83FF83E0E0E887E987F3
:1008AE00DE011A960E94D6060E940C07FA93EA936E
:1008BE001A930A93EBECF2E0FA93EA93DE011A969E
:1008CE00A3DE9F01AE81BF81E0E0EC93F9010E94AF
:1008DE0022072A96FF900895AA93E8B3EF70AE2FE1
:1008EE00E881E07FEA2BE8BB8DE08A95F1F7C29AAA
:1008FE008DE08A95F1F7C2988DE08A95F1F777C071
:10090E00AA93A881E9DFE881E295E883A881E4DF74
:10091E0085E88A95F1F76BC0AA93E881F0E0E0587C
:10092E00FD4FE081A981AE0FEBDF59804880229602
:10093E000895A2E00E949705ACE0E2DFA1E00E94DC
:10094E009705E0E04E2E5E2E0895AA93A881AA3058
:10095E0011F0571448F0E0E0EA934394A42DDCDF45
:10096E00A881AA3009F443C05394C09AA881C8DF65
:10097E00C0983DC0BA93AA931A93A981BA81ED91FA
:10098E00A983BA831E2FE03019F0A12FDEDFF5CF39
:10099E00188123960895AA93E7B3E06FE7BBBA9A3E
:1009AE00B89AB99AC298C098C1987880E881E058F0
:1009BE00E0938202E881E054E0938302A4E1B0E088
:1009CE000E94A5050E949D050E949D050E949D0501
:1009DE00A0E282DF88EC90E00197F1F7A8E290DFC9
:1009EE00A4E08EDFA5E88CDFA6E08ADFA2DF2196E9
:1009FE000895BA93AA93A991B991EE27FF276D9105
:100A0E00662311F03196FBCF0895BA93AA93AA27C5
:100A1E00BB27E991F9910590002011F01196FBCFBB
:100A2E00FD010895FA93EA93EC81FD810E94E6069A
:100A3E000E94140784E00E943F0428960895E0E087
:100A4E00EA93A0E00E949304A0E6B2E00C94C104E5
:100A5E00E0E6F2E0FA93EA930895BA93AA93AA8194
:100A6E00BB81E3E0F0E00E94FE0630970895FA9312
:100A7E00EA9380E00E943F042496E1CFAA81BB81D5
:100A8E00E3E0F0E00E94FE060895AC81BD81E2E055
:100A9E00F0E00E94FE060895FA93EA93EE81FF813C
:100AAE000E94E6060E941407E885F9850E94E60674
:100ABE000E94140788E00E943F042C96C0CFEE815E
:100ACE00FF81FA93EA9308952A93AD85BE85EF854B
:100ADE00F88909950895E889F9893497E88BF98B97
:100AEE000895AD85BE85EF85F88909950895A88985
:100AFE00B98914960E940C07EE83FF83AE81BF81E5
:100B0E000895A889B98914960E940C07EA87FB8775
:100B1E000895DE011C960E94D6060E940C070895C9
:100B2E000E948704A3E0B0E00C94A505A0E30E9408
:100B3E00730488EC90E00197F1F70895109639F060
:100B4E00A89580ED97E00197F1F71197C9F70895F1
:100B5E00552342F4503811F4E0FF04C03196691F5A
:100B6E00791F6BF050E8572711F45F9373C05F3F06
:100B7E0031F0660F000C57956795752F08955F93AA
:100B8E0000200AF073C06CC050E8192E1522880F91
:100B9E00991F9527550F879550E8072E0522660F4A
:100BAE00771F7527550F67950895689401C0E894CF
:100BBE005F93F2DF703818F07F3F08F44BC056E1B8
:100BCE00571BAAF4519558300EF4593030F0EFEF10
:100BDE00FFEF6FEF7FE777F91AC077275523B9F04C
:100BEE00EE0FFF1F661F771F5A95D1F710C077279C
:100BFE00583028F0EF2FF62F672F5850F9CF552386
:100C0E0031F076956795F795E7955A95D1F70020CF
:100C1E000AF4CDD05F910895689401C0E89430979E
:100C2E0060407040B1F0002426F0772312F4009457
:100C3E00BED0172E7EE1112032F07A95EE0FFF1FF7
:100C4E00661F111CF9CFEF2FF62F612D5F938ADFF0
:100C5E005F910895EE27FF27662777275F91089506
:100C6E00EFEFFFEF6FE77FEF5F910895EFEFFFEF8D
:100C7E006FE77FE75F9108955F9386DF703851F3DA
:100C8E00903841F301240894791F23F41CF30020BB
:100C9E003AF3ECCF0F921F932F933F934F9311275D
:100CAE0022279927689FA0018F9F302D410D591F34
:100CBE006B9F300D411D591F8E9F27D0BF9F25D092
:100CCE006A9F23D0BE9F1DD0AF9F1BD0AE9F110D2C
:100CDE00291F391F491F591FE32FF42F652F522F3C
:100CEE004F913F912F911F910F9066232AF0550F30
:100CFE00EE1FFF1F661F02C073954BF229DF5F9137
:100D0E000895100D211D391F02C0200D311D491FE0
:100D1E00591F08955F9338DF703821F411200AF4BB
:100D2E009FCFA4CF903809F495CF01240894970B48
:100D3E001BF4D4F30020F3CF792F1F932F933F93FF
:100D4E004F9311241127222733274427552790E24A
:100D5E00AE17BF078607410730F0AE1BBF0B860BE1
:100D6E00410B089401C08894551F221F331F111C7C
:100D7E00AA1FBB1F881F441F9A9551F7F901612DB9
:100D8E004F913F912F911F91662332F0550FEE1F19
:100D9E00FF1F661F7A9543F2DBDE5F9108950024F4
:100DAE00AF0DB01D0895F195E195F0400895F095C1
:100DBE0060957095E195FF4F6F4F7F4F08956F2FA0
:100DCE00660F660B762F08950024112490E1AA0F6A
:100DDE00BB1F001C111C0E1A1F0A18F40E0E1F1E2C
:100DEE0001C0A1609A9599F7FD01D0010895E8948C
:100DFE00B7FF04C0A095B09511966894F7FDD3DFA8
:100E0E00E3DFFD010EF4CFDF0895ED91FC91119714
:100E1E0008950590F491E02D08957A936A93FA93CC
:100E2E00EA9308955A934A933A932A931A930A93FC
:100E3E0008955D814C813B812A8119810881089535
:00000001FF
