:040000000C94E2007A
:100004000C9400000C9400000C9400000C9400006C
:100014000C9400000C9400000C9400000C9400005C
:100024000C9400000C9400000C9400000C9400004C
:100034000C9400000C9400000C9400000C9400003C
:100044000C9400000C9400000C9400000C9400002C
:100054001027E80364000A000100001000011000EA
:1000640001004C4544206C69676874202025326483
:10007400202020202020202020202020202020207C
:1000840020004F46462020202020253264200A20CC
:10009400202020202020205F5F5F2020202020209F
:1000A40020004C4544202046414E202054454D50CC
:1000B400200A5F5F5F202020202020202020202095
:1000C40020004C4544202046414E202054454D50AC
:1000D400200A20202020205F5F5F20202020202075
:1000E40020004C4544202046414E202054454D508C
:1000F400200A202020202020202020205F5F5F2055
:1001040020004F4646202020202025326420202530
:100114003264200A5F5F5F202020202020202020DE
:1001240020202020004F4646202020202025326415
:100134002020253264200A20202020202020205F37
:100144005F5F2020202000534C4F5720204D454412
:100154002020464153540A5F5F5F20202020202046
:10016400202020202000534C4F5720204D45442070
:1001740020464153540A20202020205F5F5F202026
:100184002020202000534C4F5720204D4544202050
:10019400464153540A202020202020202020205F84
:1001A4005F5F200001002D4E414E00494E46000085
:1001B40080C001008002A80102008402B401000092
:1001C400F894EE27ECBBF1E0FBBFEBBFE5BF8DE09D
:1001D400A2E0BB27ED938A95E9F780E098E0A0E6DA
:1001E400ED930197E9F7E6EBF1E08591959100979E
:1001F40061F0A591B59105901590BF01F0010590AE
:100204000D920197E1F7FB01F0CFEFE5EDBFE8E0D8
:10021400EEBFC0E6D2E00C941902AA93E881E7B9D4
:100224008BE18A95F1F7369A349BFECF349AE4B188
:10023400F5B10C940C05E9E6E5BD8F9A0895E0E06C
:10024400E5BD0895EBE6E3BFBB9A0895E0E0E3BFA4
:100254000895BA93AA93CC9B03C0E0E0EA83EB83AE
:10026400E0E6F2E0FA93EA93E6E6F0E00E9427057E
:100274000E943405EA81FB81D8C0BA93AA93C99B32
:1002840004C0E881F981319605C0CA9B05C0E881A4
:10029400F9813197E883F983A881B9810E947704B1
:1002A4000C94AC04BA93AA93C99B04C0E881F98165
:1002B400319605C0CA9B05C0E881F9813197E8836E
:1002C400F9830E943D05E6E8F0E00E9427050E94BC
:1002D4003405A881B9810E9477040C94AC040E946F
:1002E400420569F40E943D05E6EAF0E00E944C05EF
:1002F400CB9B04C0E1E0F0E0E883F98325C00E94D1
:100304005305E230A0E0FA0769F40E943D05E6ECEB
:10031400F0E00E944C05CB9B04C0EAE0F0E0E883E7
:10032400F98312C00E945305E130A0E0FA0761F49A
:100334000E943D05E6EEF0E00E944C05CB9B04C014
:10034400E4E1F0E0E883F983E881F98124960895F3
:10035400BA93AA930E945A05309761F40E943D050E
:10036400E6E0F1E00E946105CB9B03C0E0E0EA8394
:10037400EB831DC00E945A05E130A0E0FA07B9F4EE
:100384000E943D05E9E2F1E00E946105CB9B08C0B3
:10039400CC9906C0AA81BB8185DFEA83FB83F8CFB1
:1003A400CC9B03C0E0E0EE83EF83EE81FF812896CF
:1003B40008950E94420569F40E943D05EBE4F1E0D2
:1003C4000E944C05CB9B04C0E4E6F0E00E94740557
:1003D40025C00E945305E230A0E0FA0769F40E94A8
:1003E4003D05EAE6F1E00E944C05CB9B04C0E1EB3D
:1003F400F0E00E94740512C00E945305E130A0E0B1
:10040400FA0761F40E943D05E9E8F1E00E944C0519
:10041400CB9B04C0EAEFF0E00E947405CC9B03C0C0
:10042400E0E0EC83ED83EC81FD8126960895289726
:10043400E0E0E883E983EEE1EA83E0E0EB83EC8348
:10044400ED83EE83EF8340E050E0E881ECBFE0E031
:10045400EABBEBBBE8E0E7BBE0E0E8BBEEE0E4BB13
:10046400E0E0E5BBE1BBE2BBE3BFE2BFECBFEFBD55
:10047400EEBDEDBDECBDE7BDE6BDEBBDEABDE9BD3E
:10048400E8BDE2BDE5BDE4BDE3BDE9BFE5BFE4BF52
:10049400EAB9E0E8E8B9E0E0E7B9E3E8E6B9E0E0C2
:1004A400E0BFEDB9E6BFA4E10E94E0047894E0E087
:1004B4009899E1E02E2F3327022E032A31F0A5E08C
:1004C400ACDE8F0103BDB7DE06C0203011F497986F
:1004D40001C0979AB4DEA0E0A0DEEC83FD830E9405
:1004E400F9060E942806DF01CB01E0E0F0E060E8B5
:1004F40074E40E94A406A0E0B0E080EA90E40E94C4
:100504005606A0E0B0E088EC92E40E9456060E94F1
:10051400F105EC83FD83EA81FB81AC81BD81EA179F
:10052400FB0714F48FDE02C0C39890DEDA01A5DE67
:10053400AF01EE81FF81309731F45A934A93A88535
:10054400B985CDDE26C0AE81BF81119749F43A93B7
:100554002A93E885F985FA93EA93D8017ADE19C0DB
:10056400AE81BF81549751F40E9479055A934A93FE
:100574000E947905AA85BB85EBDE0BC0AE81BF81E5
:100584001A9749F40E9479055A934A93AC81BD8124
:1005940010DFEE83FF838BCFFFCFBA93AA931A9316
:1005A4000A93AA81BB8112960E941F07309759F1C2
:1005B400AA81BB8114960E941F078F01309761F0B6
:1005C4000230E0E01E0798F0F80131978F01AA810C
:1005D400BB811496ED93FC93AA81BB811296ED9195
:1005E400FD913196FE93EE933197AC81A083AA815D
:1005F400BB810E941F07FF232AF0ED91FD913196E4
:10060400FE93EE9306C0AA81BB81EFEFFFEFED935B
:10061400FC931981088125960895BA93AA93269785
:100624000E942C0710E0AC85BD85E0E0F0E0ED937E
:10063400FC93EA89FB893196EA8BFB8B3197E49131
:100644002E2FE03009F415C1E12FE03039F42532C2
:1006540011F411E002C00E947E050AC1E130A9F440
:10066400253219F40E947E0502C112E040E000E048
:100674002D3211F401E0FCC02B3211F44BE2F8C02E
:10068400203211F440E2F4C002C0E23039F450E008
:1006940013E0203311F40068EBC003C0E33009F029
:1006A400E7C0203310F02A3308F007C0AAE05A9FAD
:1006B400502DE22FE0535E0FDBC0E22FE33649F406
:1006C4000E948505E889F989A481AA930E948B0573
:1006D400CEC0E33741F40E9485050E9491050E9433
:1006E4000E051E2F0AC0E03761F40E9485050E94A2
:1006F40091050E941A051E2F086002600F7730E0F2
:1007040034C0E43611F0E93611F4046002C0E53770
:1007140031F4E4E5F0E0EE83FF8315E00CC0E83546
:1007240011F4086003C0E83709F0A1C0EEE5F0E079
:10073400EE83FF8314E002FF14C00E9485050E942B
:100744009B05AB85AA233AF4EA85FB850E94ED0656
:10075400EA87FB874DE2403011F01F5F01C00B7F39
:1007640004C00E9485050E949B0500FD11C0151759
:1007740078F407FF08C002FF04C00B7F242F115038
:1007840001C020E301C020E20E947E055150EFCF5A
:10079400312F01FF17C03030A1F003FF06C0EE81F6
:1007A400FF812591EE83FF8305C0AE81BF812D912A
:1007B400AE83BF830E947E05503009F05150315002
:1007C400EACF4BC020E3EE81FF810E942307E88734
:1007D400F987EE81FF813296EE83FF83E885F98500
:1007E400AA85BB85AE17BF0750F02F5FA885B985D2
:1007F400EA85FB85EA1BFB0BEA87FB87EFCF2A33ED
:1008040028F003FF02C0295F01C0295D04FD1AC05E
:10081400213320F4A885B985119709F409C0531729
:1008240010F000FF01C013C020E207FF0BC020E35B
:10083400006102FF07C00B7F4A930E948B05503072
:1008440009F051500E947E05503009F0515031504A
:10085400A885B985129708F0B5CF00FF08C05030BD
:1008640031F05150E0E2EA930E948B05F8CF10E09A
:10087400E0CEAC85BD850E941F070E9433076496B5
:100884000895FF92F82E26970E942E070E94A30532
:10089400309719F4EFEFFFEF23C0DE0116960E94A4
:1008A400E9068D010E94A305EE83FF83E0E0E8875B
:1008B400E987DE011A960E94E9060E941F07FA934F
:1008C400EA931A930A93EFECF2E0FA93EA93DE01C7
:1008D4001A96A3DE9F01AE81BF81E0E0EC93F9019B
:1008E4000E9435072A96FF900895BA93AA93E99136
:1008F400F99130971AF4E095F09531960895AA93FA
:10090400E8B3EF70AE2FE881E07FEA2BE8BB8DE01F
:100914008A95F1F7C29A8DE08A95F1F7C2988DE035
:100924008A95F1F777C0AA93A881E9DFE881E29577
:10093400E883A881E4DF85E88A95F1F76BC0AA9380
:10094400E881F0E0EC57FD4FE081A981AE0FEBDFC9
:100954005980488022960895A2E00E94AA05ACE03E
:10096400E2DFA1E00E94AA05E0E04E2E5E2E08958B
:10097400AA93A881AA3011F0571448F0E0E0EA9352
:100984004394A42DDCDFA881AA3009F443C0539416
:10099400C09AA881C8DFC0983DC0BA93AA931A939D
:1009A400A981BA81ED91A983BA831E2FE03019F091
:1009B400A12FDEDFF5CF188123960895AA93E7B31C
:1009C400E06FE7BBBA9AB89AB99AC298C098C1982E
:1009D4007880E881E058E0938602E881E054E0936F
:1009E4008702A4E1B0E00E94B8050E94B0050E940D
:1009F400B0050E94B005A0E282DF88EC90E0019788
:100A0400F1F7A8E290DFA4E08EDFA5E88CDFA6E092
:100A14008ADFA2DF21960895BA93AA93A991B99186
:100A2400EE27FF276D91662311F03196FBCF0895D1
:100A3400BA93AA93AA27BB27E991F99105900020BC
:100A440011F01196FBCFFD010895FA93EA93EC811E
:100A5400FD810E94F9060E94270784E00E94430456
:100A640028960895E0E0EA93A0E00E94A104A0E69D
:100A7400B2E00C94CF04E0E6F2E0FA93EA9308952E
:100A8400BA93AA93AA81BB81E3E0F0E00E94110724
:100A940030970895FA93EA9380E00E9443042496E1
:100AA400E1CFAA81BB81E3E0F0E00E941107089541
:100AB400AC81BD81E2E0F0E00E9411070895FA9351
:100AC400EA93EE81FF810E94F9060E942707E885D8
:100AD400F9850E94F9060E94270788E00E944304D2
:100AE4002C96C0CFE883F983E881ECBF0895EE81AA
:100AF400FF81FA93EA9308952A93AD85BE85EF8525
:100B0400F88909950895E889F9893497E88BF98B70
:100B14000895AD85BE85EF85F88909950895A8895E
:100B2400B98914960E941F07EE83FF83AE81BF81AB
:100B34000895A889B98914960E941F07EA87FB873C
:100B44000895DE011C960E94E9060E941F0708957D
:100B54000E949504A3E0B0E00C94B805A0E30E94C1
:100B6400810488EC90E00197F1F70895109639F02C
:100B7400A89580ED97E00197F1F71197C9F70895CB
:100B8400552342F4503811F4E0FF04C03196691F34
:100B9400791F6BF050E8572711F45F9373C05F3FE0
:100BA40031F0660F000C57956795752F08955F9384
:100BB40000200AF073C06CC050E8192E1522880F6B
:100BC400991F9527550F879550E8072E0522660F24
:100BD400771F7527550F67950895689401C0E894A9
:100BE4005F93F2DF703818F07F3F08F44BC056E192
:100BF400571BAAF4519558300EF4593030F0EFEFEA
:100C0400FFEF6FEF7FE777F91AC077275523B9F025
:100C1400EE0FFF1F661F771F5A95D1F710C0772775
:100C2400583028F0EF2FF62F672F5850F9CF55235F
:100C340031F076956795F795E7955A95D1F70020A9
:100C44000AF4CDD05F910895689401C0E894309778
:100C540060407040B1F0002426F0772312F4009431
:100C6400BED0172E7EE1112032F07A95EE0FFF1FD1
:100C7400661F111CF9CFEF2FF62F612D5F938ADFCA
:100C84005F910895EE27FF27662777275F910895E0
:100C9400EFEFFFEF6FE77FEF5F910895EFEFFFEF67
:100CA4006FE77FE75F9108955F9386DF703851F3B4
:100CB400903841F301240894791F23F41CF3002095
:100CC4003AF3ECCF0F921F932F933F934F93112737
:100CD40022279927689FA0018F9F302D410D591F0E
:100CE4006B9F300D411D591F8E9F27D0BF9F25D06C
:100CF4006A9F23D0BE9F1DD0AF9F1BD0AE9F110D06
:100D0400291F391F491F591FE32FF42F652F522F15
:100D14004F913F912F911F910F9066232AF0550F09
:100D2400EE1FFF1F661F02C073954BF229DF5F9110
:100D34000895100D211D391F02C0200D311D491FBA
:100D4400591F08955F9338DF703821F411200AF495
:100D54009FCFA4CF903809F495CF01240894970B22
:100D64001BF4D4F30020F3CF792F1F932F933F93D9
:100D74004F9311241127222733274427552790E224
:100D8400AE17BF078607410730F0AE1BBF0B860BBB
:100D9400410B089401C08894551F221F331F111C56
:100DA400AA1FBB1F881F441F9A9551F7F901612D93
:100DB4004F913F912F911F91662332F0550FEE1FF3
:100DC400FF1F661F7A9543F2DBDE5F9108950024CE
:100DD400AF0DB01D0895F195E195F0400895F0959B
:100DE40060957095E195FF4F6F4F7F4F08956F2F7A
:100DF400660F660B762F08950024112490E1AA0F44
:100E0400BB1F001C111C0E1A1F0A18F40E0E1F1E05
:100E140001C0A1609A9599F7FD01D0010895E89465
:100E2400B7FF04C0A095B09511966894F7FDD3DF81
:100E3400E3DFFD010EF4CFDF0895ED91FC911197EE
:100E440008950590F491E02D08957A936A93FA93A6
:100E5400EA9308955A934A933A932A931A930A93D6
:100E640008955D814C813B812A811981088108950F
:00000001FF
